S01700004763634170706C69636174696F6E312E737265635B
S113000071C000000C94C20D0C94F90D0C94300EC8
S11300100C94670E0C949E0E0C94D50E0C940C0F3D
S11300200C94430F0C947A0F0C94B10F0C94E80FBA
S11300307AC000000C9413150C944A150C94811585
S11300400C94B8150C94EF150C9426160C945D16AC
S11300500C9494160C94CB160C9402170C94391728
S113006062C000000C94361C0C94FC1C0C94AC1C58
S11300705AC0000059C0000056C000000C9470170C
S11300800C94A7170C94DE170C9415180C944C18A8
S11300900C944C1D0C94121E0C94C21D44C0000000
S11300A042C000000C9483180C94BA180C94F118F4
S11300B00C9428190C945F190C9496190C94CD196E
S11300C00C94041A0C943B1A0C94721A0C94621E2D
S11300D00C94281F0C94D81E0C94781F0C943E206A
S11300E00C94EE1F11241FBECFEFD1E2DEBFCDBFB3
S11300F000E00CBF12E0A0E0B2E0E4E8FBE400E0C2
S11301000BBF02C007900D92AA3BB107D9F723E0B9
S1130110AAEBB2E001C01D92A23AB207E1F70E9435
S11301201F100C94C0256CCF1F920F9200905F009B
S11301300F92112400905B000F922F933F934F93E3
S11301405F936F937F938F939F93AF93BF93EF933B
S1130150FF93CF93DF93CDB7DEB78091BA0290912E
S1130160BB02FC0119950000DF91CF91FF91EF9143
S1130170BF91AF919F918F917F916F915F914F91BB
S11301803F912F910F9000925B000F9000925F00BF
S11301900F901F9018950F931F93CF93DF9300D068
S11301A01F92CDB7DEB79C838B831A8219823DC020
S11301B02091BE023091BF0289819A81880F991FD4
S11301C0880F991F8901080F191F2091BE023091D1
S11301D0BF0289819A81880F991F880F991F820F06
S11301E0931FFC0180819181A281B38129813A818D
S11301F0220F331F220F331F4B815C81240F351FC5
S1130200F9012081318142815381BC01CD010E94D9
S11302102322DC01CB01F80180839183A283B38381
S113022089819A8101969A83898329813A8180916F
S1130230BC029091BD022817390708F4B9CF000019
S11302400F900F900F900F90DF91CF911F910F910E
S11302500895CF93DF9300D01F921F92CDB7DEB7DE
S11302608B836C834D838B81282F30E0C901880FE9
S1130270991F820F931F9C012F5D3F4F8B81873005
S113028018F08BEC90E002C080E090E0820F931FA6
S11302909A8389838D818823B9F489819A81FC01A9
S11302A08081482F8C81282F30E081E090E002C0CB
S11302B0880F991F2A95E2F780958423282F898136
S11302C09A81FC01208318C08D818130A9F4898131
S11302D09A81FC018081482F8C81282F30E081E0B5
S11302E090E002C0880F991F2A95E2F7842B282FEB
S11302F089819A81FC01208300000F900F900F9058
S11303000F900F90DF91CF910895CF93DF9300D09A
S11303101F92CDB7DEB78B836C838B81282F30E09F
S1130320C901880F991F820F931F9C01205E3F4FC4
S11303308B81873018F08BEC90E002C080E090E075
S1130340820F931F9A83898389819A81FC0180811A
S1130350882F90E02C81222F30E002C0959587955C
S11303602A95E2F78170992721E0892B09F420E08E
S1130370822F0F900F900F900F90DF91CF910895DF
S1130380EF92FF920F931F93CF93DF93CDB7DEB716
S1130390E1970FB6F894DEBF0FBECDBF9FA78EA71F
S11303A079AB68AB19821A821B821092C00288A9A9
S11303B099A9FC0110821C8216C78981882F90E0BC
S11303C02EA53FA5820F931FFC018081882F90E00A
S11303D00E94B625892B21F089818F5F898303C709
S11303E01A8216C08A8191E0980F9A83882F90E030
S11303F0298131E0320F3983222F30E04EA55FA5E9
S1130400240F351FF901208180549D4FFC01208366
S11304108981882F90E02EA53FA5820F931FFC01B0
S11304208081882F90E00E94B625892B59F4898118
S1130430882F90E02EA53FA5820F931FFC01808199
S1130440882381F68A81882F90E080549D4FFC0197
S113045010828091C002813409F09DC18091C10253
S11304608A3509F098C18A81883041F08A818230C6
S113047029F088A999A9FC011082B6C78A81823023
S113048009F0F5C08B8191E0980F9B83882F90E051
S113049028A939A9820F931F21E4FC0120838B81B1
S11304A091E0980F9B83882F90E028A939A9820FA7
S11304B0931F2AE5FC0120836CE073E082E192E063
S11304C00E94850A8091130390911403A09115034F
S11304D0B091160320E030E040EA5FE3BC01CD01B7
S11304E00E94DA23DC01CB018E8B9F8BA88FB98FFE
S11304F08B8191E0980F9B83882F90E028A939A9DC
S11305008901080F191F6E897F89888D998D0E9432
S1130510F322DC01CB0124E630E0B9010E943D2442
S1130520CB01805DF80180838B8191E0980F9B83E0
S1130530882F90E028A939A98901080F191F6E890D
S11305407F89888D998D0E94F322DC01CB0124E6FA
S113055030E0B9010E943D242AE030E0B9010E9454
S11305603D24CB01805DF80180838B8191E0980F5D
S11305709B83882F90E028A939A98901080F191FA6
S11305806E897F89888D998D0E94F322DC01CB01CD
S11305902AE030E0B9010E943D24805DF8018083A7
S11305A08B8191E0980F9B83882F90E028A939A92B
S11305B0820F931F2EE2FC0120838B8191E0980F20
S11305C09B83882F90E028A939A98901080F191F56
S11305D020E030E040E251E46E897F89888D998D76
S11305E00E94DA23DC01CB01BC01CD010E94F3227D
S11305F0DC01CB012AE030E0B9010E943D24805D9A
S1130600F80180838B8191E0980F9B83882F90E081
S113061028A939A98901080F191F20E030E048EC06
S113062052E46E897F89888D998D0E94DA23DC01DA
S1130630CB01BC01CD010E94F322DC01CB012AE0F5
S113064030E0B9010E943D24805DF80180838B81F4
S113065091E0980F9B83882F90E028A939A9820FF5
S1130660931F20E2FC01208381E08C83BCC510929F
S1130670F2021092F3021092F4021092F50282E058
S113068090E09E838D837FC08D819E81059771F458
S11306908D819E8180549D4FFC0180818E3209F4AE
S11306A06CC088A999A9FC0110829EC68D819E8187
S11306B080549D4FFC0180818A3340F48D819E815A
S11306C080549D4FFC018081803328F488A999A926
S11306D0FC01108289C68091F2029091F302A091EC
S11306E0F402B091F50220E030E040E251E4BC01B4
S11306F0CD010E94DA23DC01CB018093F2029093B6
S1130700F302A093F402B093F5028D819E8180548C
S11307109D4FFC018081882F90E0C097092E000C2A
S1130720AA0BBB0BBC01CD010E942623DC01CB012B
S113073020E030E048EC52E4BC01CD010E948B2261
S1130740DC01CB017C018D018091F2029091F302D6
S1130750A091F402B091F5029C01AD01C801B7016A
S11307600E942322DC01CB018093F2029093F302D6
S1130770A093F402B093F50201C000008D819E8124
S113078001969E838D838D819E8108970CF47CCF86
S113079081E08C8328C58091C002853409F092C120
S11307A08091C1028C3409F08DC18A81883041F076
S11307B08A81823029F088A999A9FC01108214C683
S11307C08A81823009F0EAC08B8191E0980F9B8383
S11307D0882F90E028A939A9820F931F25E4FC01F2
S11307E020838B8191E0980F9B83882F90E028A928
S11307F039A9820F931F2CE4FC0120836CE073E081
S113080082E192E082D68091130390911403A09127
S11308101503B09116038A8B9B8BAC8BBD8B8B819C
S113082091E0980F9B83882F90E028A939A989012A
S1130830080F191F6A897B898C899D890E94F3227C
S1130840DC01CB0124E630E0B9010E943D24CB0158
S1130850805DF80180838B8191E0980F9B83882FC2
S113086090E028A939A98901080F191F6A897B8991
S11308708C899D890E94F322DC01CB0124E630E0BF
S1130880B9010E943D242AE030E0B9010E943D24D0
S1130890CB01805DF80180838B8191E0980F9B836D
S11308A0882F90E028A939A98901080F191F6A899E
S11308B07B898C899D890E94F322DC01CB012AE08B
S11308C030E0B9010E943D24805DF80180838B8172
S11308D091E0980F9B83882F90E028A939A9820F73
S11308E0931F2EE2FC0120838B8191E0980F9B8360
S11308F0882F90E028A939A98901080F191F20E041
S113090030E040E251E46A897B898C899D890E94A8
S1130910DA23DC01CB01BC01CD010E94F322DC010E
S1130920CB012AE030E0B9010E943D24805DF8014A
S113093080838B8191E0980F9B83882F90E028A976
S113094039A98901080F191F20E030E048EC52E46E
S11309506A897B898C899D890E94DA23DC01CB0119
S1130960BC01CD010E94F322DC01CB012AE030E07E
S1130970B9010E943D24805DF80180838B8191E060
S1130980980F9B83882F90E028A939A9820F931F81
S113099020E2FC01208381E08C8325C41092F602BE
S11309A01092F7021092F8021092F90282E090E09D
S11309B098878F837FC08F819885059771F48F8185
S11309C0988580549D4FFC0180818E3209F46CC05F
S11309D088A999A9FC01108207C58F819885805444
S11309E09D4FFC0180818A3340F48F819885805427
S11309F09D4FFC018081803328F488A999A9FC01CA
S1130A001082F2C48091F6029091F702A091F8024C
S1130A10B091F90220E030E040E251E4BC01CD01A4
S1130A200E94DA23DC01CB018093F6029093F70253
S1130A30A093F802B093F9028F81988580549D4F5A
S1130A40FC018081882F90E0C097092E000CAA0B2E
S1130A50BB0BBC01CD010E942623DC01CB0120E0AD
S1130A6030E048EC52E4BC01CD010E948B22DC0151
S1130A70CB017C018D018091F6029091F702A09147
S1130A80F802B091F9029C01AD01C801B7010E94BE
S1130A902322DC01CB018093F6029093F702A0930A
S1130AA0F802B093F90201C000008F819885019685
S1130AB098878F838F81988508970CF47CCF81E089
S1130AC08C8391C38091C002853509F07DC08091EB
S1130AD0C102803509F078C08A818B3029F088A959
S1130AE099A9FC01108280C41092FA021092FB02B0
S1130AF01092FC021092FD0282E090E09A878987AE
S1130B005DC089859A8580549D4FFC0180818A331C
S1130B1040F489859A8580549D4FFC0180818033FF
S1130B2028F488A999A9FC0110825EC48091FA0274
S1130B309091FB02A091FC02B091FD02880F991FD5
S1130B40AA1FBB1F9C01AD01220F331F441F551F59
S1130B50220F331F441F551F820F931FA41FB51F5D
S1130B608093FA029093FB02A093FC02B093FD02DF
S1130B7089859A8580549D4FFC018081882F90E05F
S1130B80C0979C01990F440B550B8091FA029091E8
S1130B90FB02A091FC02B091FD02820F931FA41FDF
S1130BA0B51F8093FA029093FB02A093FC02B093CA
S1130BB0FD0289859A8501969A87898789859A8510
S1130BC00B970CF49ECF0FC38091C002843409F0BC
S1130BD07DC08091C1028E3409F078C08A818B3047
S1130BE029F088A999A9FC011082FEC31092FE0283
S1130BF01092FF02109200031092010382E090E031
S1130C009C878B875DC08B859C8580549D4FFC01A0
S1130C1080818A3340F48B859C8580549D4FFC01F0
S1130C208081803328F488A999A9FC011082DCC34F
S1130C308091FE029091FF02A0910003B091010304
S1130C40880F991FAA1FBB1F9C01AD01220F331FE0
S1130C50441F551F220F331F441F551F820F931F1C
S1130C60A41FB51F8093FE029093FF02A09300037C
S1130C70B09301038B859C8580549D4FFC0180813A
S1130C80882F90E0C0979C01990F440B550B8091DD
S1130C90FE029091FF02A0910003B0910103820F24
S1130CA0931FA41FB51F8093FE029093FF02A0938D
S1130CB00003B09301038B859C8501969C878B87E9
S1130CC08B859C850B970CF49ECF8DC28091C002BE
S1130CD0853551F58091C1028D3431F58A81853095
S1130CE029F088A999A9FC0110827EC382E090E0D2
S1130CF09E878D8712C08D859E8502972D853E85A2
S1130D0020543D4FF90120818E5F9C4FFC012083CC
S1130D108D859E8501969E878D878D859E850597F9
S1130D2054F3109205035FC28091C002843451F5DC
S1130D308091C1028D3431F58A81853029F088A9EA
S1130D4099A9FC01108250C382E090E0988B8F87B0
S1130D5012C08F85988902972F85388920543D4F7A
S1130D60F90120818A5F9C4FFC0120838F8598893B
S1130D700196988B8F878F859889059754F31092E5
S1130D80090331C28091C0028D34C9F48091C1023B
S1130D908535A9F48A81823029F088A999A9FC01B2
S1130DA0108222C388E0EEE5F2E0DE015A9601905B
S1130DB00D928A95E1F7CE014A96EDD914C280913D
S1130DC0C0028D3469F48091C102843449F48A816B
S1130DD0823009F408C288A999A9FC01108204C3CD
S1130DE08091C0028D3469F48091C1028C3449F43D
S1130DF08A81823009F4F7C188A999A9FC0110827B
S1130E00F3C28091C0028D3469F48091C1028235AD
S1130E1049F48A81823009F4E6C188A999A9FC01C0
S1130E201082E2C28091C0028635F9F48091C10239
S1130E308134D9F48A81833029F088A999A9FC01E5
S1130E401082D2C28091C202803320F08091C2020B
S1130E50833328F088A999A9FC011082C5C2809126
S1130E60C202805380930A03BEC18091C0028635BA
S1130E70F9F48091C1028534D9F48A81833029F050
S1130E8088A999A9FC011082AFC28091C202803363
S1130E9020F08091C202833328F088A999A9FC012B
S1130EA01082A2C28091C202805380930B039BC123
S1130EB08091C0028035A1F58091C1028E3481F504
S1130EC08A81823029F088A999A9FC0110828CC2F8
S1130ED08B8191E0980F9B83882F90E028A939A9F2
S1130EE0820F931F20E5FC0120838B8191E0980FF2
S1130EF09B83882F90E028A939A9820F931F2EE4A1
S1130F00FC0120838B8191E0980F9B83882F90E0D4
S1130F1028A939A9820F931F20E2FC01208363C111
S1130F208091C002843509F072C08091C10283357A
S1130F3009F06DC08A81853029F088A999A9FC013E
S1130F40108252C28091C2028A33A0F48091C202FC
S1130F50803380F08091C3028A3360F48091C302AD
S1130F60803340F08091C2028A3320F48091C2021F
S1130F70803328F488A999A9FC01108235C2809194
S1130F80C202882F90E0C09744E6489F9001499F91
S1130F90300D11248091C302882F90E0C097880FF0
S1130FA0991FAC01440F551F440F551F840F951F03
S1130FB0280F391F8091C402882F90E0C097820FB8
S1130FC0931F90939B0380939A0380919C03909129
S1130FD09D030E942D2520919A0330919B03C90102
S1130FE0880F991F820F931F880F991F880F991FCD
S1130FF00E94952490939D0380939C0380919C036D
S113100090919D039093180380931703ECC08091F3
S1131010C002843509F0BAC08091C1028C3409F051
S1131020B5C08A818A3129F088A999A9FC01108266
S1131030DBC12CE0CE018296FC01322F11923A954D
S1131040E9F782E0898B8AC08989853019F089891A
S11310508C3079F48989882F90E080549D4FFC016D
S113106080818E3209F474C088A999A9FC01108288
S1131070BBC18989883019F089898F3079F48989CD
S1131080882F90E080549D4FFC0180818B3309F4BC
S113109061C088A999A9FC011082A6C18989882FF9
S11310A090E080549D4FFC0180818A3348F4898903
S11310B0882F90E080549D4FFC018081803330F470
S11310C088A999A9FC01108200008EC18989883001
S11310D0F0F48AA19BA1880F991F9C01220F331F52
S11310E0220F331F820F931F9BA38AA32AA13BA124
S11310F08989882F90E080549D4FFC018081882F3E
S113110090E0820F931FC0979BA38AA324C0898970
S11311108F3008F58CA19DA1880F991F9C01220F87
S1131120331F220F331F820F931F9DA38CA32CA167
S11311303DA18989882F90E080549D4FFC018081D6
S1131140882F90E0820F931FC0979DA38CA303C0A8
S1131150000001C0000089898F5F898B89898A31E9
S113116008F472CF80911703909118039C01245FB7
S11311703F4F30931803209317032CE0FE01B296DF
S1131180DC0101900D922A95E1F72DC08091C002F7
S1131190833581F48091C102813461F48A81823083
S11311A029F088A999A9FC0110821EC186E092E069
S11311B0A5D319C08091C002833581F48091C10206
S11311C0853461F48A81823029F088A999A9FC01C7
S11311D010820AC182E192E091D305C088A999A93D
S11311E0FC01108201C18981882F90E02EA53FA5C2
S11311F0820F931FFC018081882321F0898184362A
S113120008F4DBC88C81882309F4E5C060E080E041
S11312107CD88823A1F18B8191E0980F9B83882F40
S113122090E028A939A9820F931F21E4FC012083AF
S11312308B8191E0980F9B83882F90E028A939A98E
S1131240820F931F2CE4FC0120838B8191E0980F83
S11312509B83882F90E028A939A9820F931F20E34C
S1131260FC0120838B8191E0980F9B83882F90E071
S113127028A939A9820F931F20E2FC01208361E091
S113128080E043D88823A1F18B8191E0980F9B8360
S1131290882F90E028A939A9820F931F21E4FC012B
S11312A020838B8191E0980F9B83882F90E028A95D
S11312B039A9820F931F2CE4FC0120838B8191E0D8
S11312C0980F9B83882F90E028A939A9820F931F38
S11312D021E3FC0120838B8191E0980F9B83882F6D
S11312E090E028A939A9820F931F20E2FC012083F2
S11312F062E080E00AD88823A1F18B8191E0980F05
S11313009B83882F90E028A939A9820F931F21E499
S1131310FC0120838B8191E0980F9B83882F90E0C0
S113132028A939A9820F931F2CE4FC0120838B8107
S113133091E0980F9B83882F90E028A939A9820F08
S1131340931F22E3FC0120838B8191E0980F9B8300
S1131350882F90E028A939A9820F931F20E2FC016D
S1131360208363E080E00E9485018823A1F18B81C2
S113137091E0980F9B83882F90E028A939A9820FC8
S1131380931F21E4FC0120838B8191E0980F9B83C0
S1131390882F90E028A939A9820F931F2CE4FC011F
S11313A020838B8191E0980F9B83882F90E028A95C
S11313B039A9820F931F23E3FC0120838B8191E0E1
S11313C0980F9B83882F90E028A939A9820F931F37
S11313D020E2FC0120838B81882F90E028A939A981
S11313E0820F931FFC011082E1960FB6F894DEBFC2
S11313F00FBECDBFDF91CF911F910F91FF90EF9062
S11314000895CF93DF9300D01F92CDB7DEB79B83AF
S11314108A836C838C81882F90E082959295907F4B
S11314209827807F9827282F8A819B81FC018181BE
S1131430822B89838A819B81FC01808169810E943E
S1131440741B00000F900F900F900F90DF91CF91BD
S113145008950F931F93CF93DF93CDB7DEB72797EC
S11314600FB6F894DEBF0FBECDBF9C838B837E8303
S11314706D834F8319828B819C81FC0180810E9442
S1131480BB1B8A8313C0898191E0980F9983882FAD
S113149090E02D813E818901080F191F8B819C8169
S11314A0FC0180810E94BB1BF801808399818F819C
S11314B0981748F3000027960FB6F894DEBF0FBEC6
S11314C0CDBFDF91CF911F910F910895EF920F93AC
S11314D0CF93DF931F921F92CDB7DEB79A83898390
S11314E089819A81FC018081E12C00E023E040E8BD
S11314F055E260E070E00E94E21A00000F900F9045
S1131500DF91CF910F91EF9008958F929F92AF92B8
S1131510BF92CF92DF92EF92FF92CF93DF93CDB73A
S1131520DEB765970FB6F894DEBF0FBECDBF9B8BB9
S11315308A8B7D8B6C8B8A899B89FC0184818130A9
S113154009F076C08A899B8964E05BDF80E090E0E3
S1131550A0E2B1E48C839D83AE83BF8320E030E0BE
S11315604AE755E46C817D818E819F810E94DA2354
S1131570DC01CB0188879987AA87BB8720E030E00C
S113158040E85FE3688579858A859B850E94872288
S113159088232CF481E090E09D878C873FC020E075
S11315A03FEF4FE757E4688579858A859B850E94DC
S11315B0D62318164CF520E030E040E251E46C816B
S11315C07D818E819F810E94DA23DC01CB01BC01E5
S11315D0CD010E94F822DC01CB019D878C870FC0CE
S11315E080E991E09F878E878E859F850197F1F72B
S11315F09F878E878C859D8501979D878C878C8599
S11316009D85892B69F714C0688579858A859B85B2
S11316100E94F822DC01CB019D878C878C859D85F7
S1131620998B888B888999890197F1F7998B888B95
S11316308A899B8961E0E5DE82E089838A899B89C6
S1131640FC018381813011F484E089832C893D89F4
S11316508A899B894981B901FCDE8C899D89FC01B9
S1131660178210861186128682E08A838A899B8972
S1131670FC018381813011F484E08A831B8249C098
S11316808C899D89FC01C780D084E184F2848C8993
S11316909D89FC0187819085A185B28520E030E099
S11316A040E853E4BC01CD010E94DA23DC01CB0104
S11316B04C015D018B81882F90E02C893D89820F3C
S11316C0931FFC018081882F90E0092E000CAA0B47
S11316D0BB0BBC01CD010E942623DC01CB019C0184
S11316E0AD01C501B4010E942322DC01CB019C01A0
S11316F0AD01C701B6010E942322DC01CB012C8974
S11317003D89F90187839087A187B2878B818F5F99
S11317108B839B818A81981708F4B2CF8C899D8929
S1131720FC01C780D084E184F2848A899B89FC010E
S113173085819681CC01A0E0B0E0BC01CD010E947E
S11317402423DC01CB019C01AD0160E070E084EB5B
S113175093E40E948B22DC01CB019C01AD01C70103
S1131760B6010E94DA23DC01CB012C893D89F90101
S113177087839087A187B287000065960FB6F89497
S1131780DEBF0FBECDBFDF91CF91FF90EF90DF9012
S1131790CF90BF90AF909F908F900895CF93DF9399
S11317A0CDB7DEB764970FB6F894DEBF0FBECDBFDA
S11317B0998B888B7B8B6A8B4C8B8A899B89FC01E8
S11317C0208188899989FC018081622F0E94741B81
S11317D080E090E0A0EEB0E48A839B83AC83BD8379
S11317E020E030E04AE755E46A817B818C819D8169
S11317F00E94DA23DC01CB018E839F83A887B987FB
S113180020E030E040E85FE36E817F818885998540
S11318100E94872288232CF481E090E09B878A87AA
S11318203FC020E03FEF4FE757E46E817F8188851A
S113183099850E94D62318164CF520E030E040E24A
S113184051E46A817B818C819D810E94DA23DC01D1
S1131850CB01BC01CD010E94F822DC01CB019B87A6
S11318608A870FC080E991E09D878C878C859D8550
S11318700197F1F79D878C878A859B8501979B87C4
S11318808A878A859B85892B69F714C06E817F813D
S1131890888599850E94F822DC01CB019B878A8781
S11318A08A859B859F878E878E859F850197F1F713
S11318B09F878E8781E0898313C0898191E0980F87
S11318C09983882F90E02A893B89820F931FFC011A
S11318D0208188899989FC018081622F0E94741B70
S11318E099818C89981748F3000064960FB6F89490
S11318F0DEBF0FBECDBFDF91CF9108950F93CF937D
S1131900DF9300D01F921F92CDB7DEB79D838C83E7
S11319108C819D81FC0181818051898381E08A834E
S11319208C819D8142E09E012F5F3F4FB90136DFDC
S11319301B829E012D5F3F4F8C819D8141E0B90147
S113194088DD5B8100E020E030E042E0CE010196DA
S1131950BC01852FC0D08C819D81FC0183818823AB
S113196019F48C819D810AD000000F900F900F9084
S11319700F900F90DF91CF910F9108950F93CF9314
S1131980DF93CDB7DEB763970FB6F894DEBF0FBE13
S1131990CDBF9B8B8A8B8A899B89FC018181805175
S11319A08F878EE0888B9E01215F3F4F8A899B89B8
S11319B042E0B901F3DE198A9E012F5E3F4F8A8906
S11319C09B8941E0B90145DD5989CE010F9600E0BC
S11319D020E030E042E0BC01852F7DD080E090E043
S11319E0A8ECB2E489839A83AB83BC8320E030E023
S11319F04AE755E469817A818B819C810E94DA23CC
S1131A00DC01CB018D839E83AF83B88720E030E077
S1131A1040E85FE36D817E818F8198850E948722F3
S1131A2088232CF481E090E09A8789873FC020E0E6
S1131A303FEF4FE757E46D817E818F8198850E9447
S1131A40D62318164CF520E030E040E251E46981D9
S1131A507A818B819C810E94DA23DC01CB01BC0159
S1131A60CD010E94F822DC01CB019A8789870FC03F
S1131A7080E991E09C878B878B859C850197F1F7A2
S1131A809C878B8789859A8501979A878987898519
S1131A909A85892B69F714C06D817E818F81988521
S1131AA00E94F822DC01CB019A87898789859A856F
S1131AB09E878D878D859E850197F1F79E878D87FB
S1131AC0000063960FB6F894DEBF0FBECDBFDF9162
S1131AD0CF910F9108950F93CF93DF93CDB7DEB7D6
S1131AE029970FB6F894DEBF0FBECDBF8B837D83DD
S1131AF06C834E8338872F83098719821A820FC01B
S1131B008A8191E0980F9A83882F90E02F813885FD
S1131B10820F931FFC0180819981892789839A818F
S1131B208985981768F31A820FC08A8191E0980F0B
S1131B309A83882F90E02C813D81820F931FFC01B2
S1131B4080819981892789839A818E81981768F386
S1131B5099818B81981711F481E001C080E0299666
S1131B600FB6F894DEBF0FBECDBFDF91CF910F91BA
S1131B700895CF93DF93CDB7DEB778940000DF915B
S1131B80CF9108951F920F9200905F000F9211243D
S1131B9000905B000F922F933F934F935F936F934B
S1131BA07F938F939F93AF93BF93EF93FF93CF93C1
S1131BB0DF93CDB7DEB78091190390911A03FC012E
S1131BC019950000DF91CF91FF91EF91BF91AF91F3
S1131BD09F918F917F916F915F914F913F912F9141
S1131BE00F9000925B000F9000925F000F901F9087
S1131BF018951F920F9200905F000F92112400908D
S1131C005B000F922F933F934F935F936F937F9358
S1131C108F939F93AF93BF93EF93FF93CF93DF93F0
S1131C20CDB7DEB780911B0390911C03FC0119957D
S1131C300000DF91CF91FF91EF91BF91AF919F9100
S1131C408F917F916F915F914F913F912F910F9061
S1131C5000925B000F9000925F000F901F90189508
S1131C601F920F9200905F000F92112400905B006E
S1131C700F922F933F934F935F936F937F938F9321
S1131C809F93AF93BF93EF93FF93CF93DF93CDB71E
S1131C90DEB780911D0390911E03FC01199500008D
S1131CA0DF91CF91FF91EF91BF91AF919F918F9170
S1131CB07F916F915F914F913F912F910F9000927F
S1131CC05B000F9000925F000F901F9018951F9279
S1131CD00F9200905F000F92112400905B000F920E
S1131CE02F933F934F935F936F937F938F939F9320
S1131CF0AF93BF93EF93FF93CF93DF93CDB7DEB74B
S1131D0080911F0390912003FC0119950000DF913D
S1131D10CF91FF91EF91BF91AF919F918F917F915F
S1131D206F915F914F913F912F910F9000925B00C3
S1131D300F9000925F000F901F9018951F920F92C2
S1131D4000905F000F92112400905B000F922F937C
S1131D503F934F935F936F937F938F939F93AF932F
S1131D60BF93EF93FF93CF93DF93CDB7DEB780910B
S1131D70210390912203FC0119950000DF91CF917A
S1131D80FF91EF91BF91AF919F918F917F916F914F
S1131D905F914F913F912F910F9000925B000F90B4
S1131DA000925F000F901F9018951F920F92009061
S1131DB05F000F92112400905B000F922F933F93CA
S1131DC04F935F936F937F938F939F93AF93BF933F
S1131DD0EF93FF93CF93DF93CDB7DEB780912303C7
S1131DE090912403FC0119950000DF91CF91FF919C
S1131DF0EF91BF91AF919F918F917F916F915F917F
S1131E004F913F912F910F9000925B000F900092A1
S1131E105F000F901F9018951F920F9200905F0023
S1131E200F92112400905B000F922F933F934F93D6
S1131E305F936F937F938F939F93AF93BF93EF932E
S1131E40FF93CF93DF93CDB7DEB7809125039091B5
S1131E502603FC0119950000DF91CF91FF91EF91CA
S1131E60BF91AF919F918F917F916F915F914F91AE
S1131E703F912F910F9000925B000F9000925F00B2
S1131E800F901F9018951F920F9200905F000F9271
S1131E90112400905B000F922F933F934F935F9315
S1131EA06F937F938F939F93AF93BF93EF93FF931E
S1131EB0CF93DF93CDB7DEB78091270390912803AA
S1131EC0FC0119950000DF91CF91FF91EF91BF9133
S1131ED0AF919F918F917F916F915F914F913F91BE
S1131EE02F910F9000925B000F9000925F000F9073
S1131EF01F9018951F920F9200905F000F9211246B
S1131F0000905B000F922F933F934F935F936F93D7
S1131F107F938F939F93AF93BF93EF93FF93CF934D
S1131F20DF93CDB7DEB78091290390912A03FC019A
S1131F3019950000DF91CF91FF91EF91BF91AF917F
S1131F409F918F917F916F915F914F913F912F91CD
S1131F500F9000925B000F9000925F000F901F9013
S1131F6018951F920F9200905F000F921124009019
S1131F705B000F922F933F934F935F936F937F93E5
S1131F808F939F93AF93BF93EF93FF93CF93DF937D
S1131F90CDB7DEB780912B0390912C03FC011995EA
S1131FA00000DF91CF91FF91EF91BF91AF919F918D
S1131FB08F917F916F915F914F913F912F910F90EE
S1131FC000925B000F9000925F000F901F90189595
S1131FD01F920F9200905F000F92112400905B00FB
S1131FE00F922F933F934F935F936F937F938F93AE
S1131FF09F93AF93BF93EF93FF93CF93DF93CDB7AB
S1132000DEB780912D0390912E03FC0119950000F9
S1132010DF91CF91FF91EF91BF91AF919F918F91FC
S11320207F916F915F914F913F912F910F9000920B
S11320305B000F9000925F000F901F9018950F9314
S11320401F93CF93DF93CDB7DEB7CD59D1090FB628
S1132050F894DEBF0FBECDBF0E948E208CE0E6E672
S1132060F2E0DE01139601900D928A95E1F78CE07F
S1132070E2E7F2E0DE011F9601900D928A95E1F706
S1132080CE010F9623DA07D250D080E08BD081E0C6
S113209089D064E680E09ED064E681E09BD019821A
S11320A00000898191E0980F9983082F10E080E067
S11320B00E94FD21282FCE014B96800F911FFC0119
S11320C02083CE014B96800F911FFC0180818823D1
S11320D041F79E0121583F4FCE014B96B9010E9412
S11320E0C0011A8211C08A8191E0980F9A83882FC7
S11320F090E09E0121583F4F820F931FFC01808185
S1132100682F80E00E94CF218A81882F90E09E0171
S113211021583F4F820F931FFC018081882319F7B8
S113212060E080E00E94CF21BACFCF93DF93CDB798
S1132130DEB741E063E084E00E94290141E064E00D
S113214084E00E94290141E065E084E00E942901C5
S113215041E063E087E00E94290141E064E087E018
S11321600E94290141E065E087E00E94290162E3C1
S113217080E030D062E381E02DD060E070E083E065
S113218066D260E070E084E062D245E051E160E054
S113219083E0D2D260E083E0A7D2EBDC0000DF91E1
S11321A0CF910895CF93DF931F92CDB7DEB7898384
S11321B08981882321F481E08093310306C08981D9
S11321C0813019F481E08093320300000F90DF9195
S11321D0CF910895CF93DF931F921F92CDB7DEB7AF
S11321E089836A838981882321F48A8180932F03D8
S11321F006C08981813019F48A81809330030000FC
S11322000F900F90DF91CF910895CF93DF93CDB7C7
S1132210DEB780913303882341F480912F038093A8
S11322203403809130038093350380913303882FE6
S113223090E0825E9D4FFC018081482F50E08091A8
S11322403403282F30E0429FC001439F900D529FDA
S1132250900D112496958795969587959C01ABE7EB
S1132260B4E10E9472249C01369527958091310334
S1132270882F90E0289FA001299F500D389F500D72
S1132280112460E083E083D380913303882F90E0AE
S11322908E5C9D4FFC018081482F50E08091340377
S11322A0282F30E0429FC001439F900D529F900D14
S11322B0112496958795969587959C01ABE7B4E193
S11322C00E9472249C013695279580913103882FB2
S11322D090E0289FA001299F500D389F500D112494
S11322E061E083E054D380913303882F90E08A5BCC
S11322F09D4FFC018081482F50E080913403282FAA
S113230030E0429FC001439F900D529F900D1124D5
S113231096958795969587959C01ABE7B4E10E94C5
S113232072249C013695279580913103882F90E083
S1132330289FA001299F500D389F500D112462E061
S113234083E025D380913303882F90E0825E9D4FF4
S1132350FC018081482F50E080913503282F30E024
S1132360429FC001439F900D529F900D112496955A
S11323708795969587959C01ABE7B4E10E947224FA
S11323809C013695279580913203882F90E0289FF1
S1132390A001299F500D389F500D112460E084E066
S11323A0F6D280913303882F90E08E5C9D4FFC0120
S11323B08081482F50E080913503282F30E0429FE0
S11323C0C001439F900D529F900D112496958795BF
S11323D0969587959C01ABE7B4E10E9472249C0119
S11323E03695279580913203882F90E0289FA0018D
S11323F0299F500D389F500D112461E084E0C7D20D
S113240080913303882F90E08A5B9D4FFC0180818B
S1132410482F50E080913503282F30E0429FC001BF
S1132420439F900D529F900D1124969587959695F4
S113243087959C01ABE7B4E10E9472249C01369518
S1132440279580913203882F90E0289FA001299F2F
S1132450500D389F500D112462E084E098D2809191
S113246033038F5F80933303909133038DEC989FF4
S1132470812D112482958F70880F880F282F220FA9
S1132480220F820FF92FF81B8F2F80933303000044
S1132490DF91CF910895CF93DF93CDB7DEB781E974
S11324A090E021E930E0F90120812360FC012083E0
S11324B080E990E020E930E0F90120812160FC010D
S11324C0208380E990E020E930E0F9012081FC01DB
S11324D0208380E990E020E930E0F9012081FC01CB
S11324E0208381E990E021E930E0F9012081FC01B9
S11324F0208381E990E021E930E0F9012081FC01A9
S1132500208381E990E021E930E0F901208128600D
S1132510FC01208381E990E021E930E0F901208188
S1132520FC01208380E990E020E930E0F90120817A
S11325302068FC01208380E990E020E930E0F90183
S113254020812062FC01208380E990E020E930E0D2
S1132550F90120812860FC0120838DEB97E3A6E834
S1132560B6E38093760390937703A0937803B093B4
S1132570790381EA90E021EA30E0F90120812360C7
S1132580FC01208380EA90E020EA30E0F901208118
S11325902160FC01208380EA90E020EA30E0F90128
S11325A02081FC01208380EA90E020EA30E0F901F8
S11325B02081FC01208381EA90E021EA30E0F901E6
S11325C02081FC01208381EA90E021EA30E0F901D6
S11325D02081FC01208381EA90E021EA30E0F901C6
S11325E020812860FC01208381EA90E021EA30E028
S11325F0F9012081FC01208380EA90E020EA30E0A8
S1132600F90120812068FC01208380EA90E020EA1F
S113261030E0F90120812062FC01208380EA90E00F
S113262020EA30E0F90120812860FC0120838DEB51
S113263097E3A6E8B6E380937A0390937B03A09391
S11326407C03B0937D030000DF91CF910895CF9375
S1132650DF9300D0CDB7DEB789837B836A8389811A
S1132660882319F08981823071F48981882F90E060
S1132670880F991F82589D4FFC01808191812A8186
S1132680FC0120832AC08981813049F0898183300B
S113269031F08981843019F089818530F1F48981A0
S11326A0882F90E0880F991F82589D4FFC018081EC
S11326B0918101962A813B81232F3327FC012083BA
S11326C08981882F90E0880F991F82589D4FFC01C3
S11326D0808191812A81FC01208300000F900F905A
S11326E00F90DF91CF910895CF93DF931F921F92A4
S11326F0CDB7DEB789836A838981882F90E08259B8
S11327009F4F2981222F30E022593F4FF901208128
S1132710622F2A81422F50E021E030E002C0220FD4
S1132720331F4A95E2F7262BFC01208300000F900B
S11327300F90DF91CF910895CF93DF9300D01F9234
S1132740CDB7DEB789836A835C834B838981882311
S1132750F9F48A81882339F48B819C8190934B030B
S113276080934A030CC18A81813039F48B819C8126
S1132770909347038093460302C18A81823009F013
S1132780FEC08B819C819093490380934803F7C0DA
S113279089818230F9F48A81882339F48B819C8180
S11327A090933B0380933A03EAC08A81813039F4E1
S11327B08B819C819093370380933603E0C08A8198
S11327C0823009F0DCC08B819C8190933903809323
S11327D03803D5C08981813099F58A81882339F4F9
S11327E08B819C819093450380934403C8C08A8164
S11327F0813039F48B819C8190933F0380933E0315
S1132800BEC08A81823039F48B819C8190934103CC
S113281080934003B4C08A81833039F48B819C81D6
S11328209093430380934203AAC08A81853009F0C0
S1132830A6C08B819C8190933D0380933C039FC0F1
S11328408981853099F58A81882339F48B819C812B
S1132850909369038093680392C08A81813039F42C
S11328608B819C81909363038093620388C08A81E7
S1132870823039F48B819C81909365038093640347
S11328807EC08A81833039F48B819C819093670365
S11328908093660374C08A81853009F070C08B818F
S11328A09C81909361038093600369C08981833024
S11328B091F58A81882339F48B819C819093550307
S11328C0809354035CC08A81813039F48B819C816C
S11328D090934F0380934E0352C08A81823039F41F
S11328E08B819C81909351038093500348C08A81CB
S11328F0833039F48B819C819093530380935203EA
S11329003EC08A818530D9F58B819C8190934D039B
S113291080934C0334C08981843089F58A8188236B
S113292039F48B819C8190935F0380935E0327C06D
S11329308A81813039F48B819C81909359038093EF
S113294058031DC08A81823039F48B819C81909315
S11329505B0380935A0313C08A81833039F48B81DB
S11329609C8190935D0380935C0309C08A818530C8
S113297031F48B819C81909357038093560300001C
S11329800F900F900F900F90DF91CF910895CF93F8
S1132990DF9300D01F921F92CDB7DEB78A836B837B
S11329A05D834C838A81882331F08A81823019F0D7
S11329B081E090E002C080E090E0898389818823EF
S11329C0B9F08A81882F90E0880F991F86579D4F10
S11329D0FC01208131818B81882F90E0880F991F21
S11329E0820F931F2C813D81FC013183208312C00F
S11329F08A81882F90E0880F991F86579D4FFC018C
S1132A00208131818B81882F90E0820F931F2C814C
S1132A10FC01208300000F900F900F900F900F90F7
S1132A20DF91CF9108951F920F9200905F000F9253
S1132A30112400905B000F922F933F934F935F9369
S1132A406F937F938F939F93AF93BF93EF93FF9372
S1132A50CF93DF93CDB7DEB78091360390913703E0
S1132A60FC0119950000DF91CF91FF91EF91BF9187
S1132A70AF919F918F917F916F915F914F913F9112
S1132A802F910F9000925B000F9000925F000F90C7
S1132A901F9018951F920F9200905F000F921124BF
S1132AA000905B000F922F933F934F935F936F932C
S1132AB07F938F939F93AF93BF93EF93FF93CF93A2
S1132AC0DF93CDB7DEB78091380390913903FC01D1
S1132AD019950000DF91CF91FF91EF91BF91AF91D4
S1132AE09F918F917F916F915F914F913F912F9122
S1132AF00F9000925B000F9000925F000F901F9068
S1132B0018951F920F9200905F000F92112400906D
S1132B105B000F922F933F934F935F936F937F9339
S1132B208F939F93AF93BF93EF93FF93CF93DF93D1
S1132B30CDB7DEB780913A0390913B03FC01199520
S1132B400000DF91CF91FF91EF91BF91AF919F91E1
S1132B508F917F916F915F914F913F912F910F9042
S1132B6000925B000F9000925F000F901F901895E9
S1132B701F920F9200905F000F92112400905B004F
S1132B800F922F933F934F935F936F937F938F9302
S1132B909F93AF93BF93EF93FF93CF93DF93CDB7FF
S1132BA0DEB780913C0390913D03FC011995000030
S1132BB0DF91CF91FF91EF91BF91AF919F918F9151
S1132BC07F916F915F914F913F912F910F90009260
S1132BD05B000F9000925F000F901F9018951F925A
S1132BE00F9200905F000F92112400905B000F92EF
S1132BF02F933F934F935F936F937F938F939F9301
S1132C00AF93BF93EF93FF93CF93DF93CDB7DEB72B
S1132C1080913E0390913F03FC0119950000DF91E0
S1132C20CF91FF91EF91BF91AF919F918F917F9140
S1132C306F915F914F913F912F910F9000925B00A4
S1132C400F9000925F000F901F9018951F920F92A3
S1132C5000905F000F92112400905B000F922F935D
S1132C603F934F935F936F937F938F939F93AF9310
S1132C70BF93EF93FF93CF93DF93CDB7DEB78091EC
S1132C80400390914103FC0119950000DF91CF911D
S1132C90FF91EF91BF91AF919F918F917F916F9130
S1132CA05F914F913F912F910F9000925B000F9095
S1132CB000925F000F901F9018951F920F92009042
S1132CC05F000F92112400905B000F922F933F93AB
S1132CD04F935F936F937F938F939F93AF93BF9320
S1132CE0EF93FF93CF93DF93CDB7DEB78091420389
S1132CF090914303FC0119950000DF91CF91FF915E
S1132D00EF91BF91AF919F918F917F916F915F915F
S1132D104F913F912F910F9000925B000F90009282
S1132D205F000F901F9018951F920F9200905F0004
S1132D300F92112400905B000F922F933F934F93B7
S1132D405F936F937F938F939F93AF93BF93EF930F
S1132D50FF93CF93DF93CDB7DEB780914403909177
S1132D604503FC0119950000DF91CF91FF91EF918C
S1132D70BF91AF919F918F917F916F915F914F918F
S1132D803F912F910F9000925B000F9000925F0093
S1132D900F901F9018951F920F9200905F000F9252
S1132DA0112400905B000F922F933F934F935F93F6
S1132DB06F937F938F939F93AF93BF93EF93FF93FF
S1132DC0CF93DF93CDB7DEB780914603909147034D
S1132DD0FC0119950000DF91CF91FF91EF91BF9114
S1132DE0AF919F918F917F916F915F914F913F919F
S1132DF02F910F9000925B000F9000925F000F9054
S1132E001F9018951F920F9200905F000F9211244B
S1132E1000905B000F922F933F934F935F936F93B8
S1132E207F938F939F93AF93BF93EF93FF93CF932E
S1132E30DF93CDB7DEB78091480390914903FC013D
S1132E4019950000DF91CF91FF91EF91BF91AF9160
S1132E509F918F917F916F915F914F913F912F91AE
S1132E600F9000925B000F9000925F000F901F90F4
S1132E7018951F920F9200905F000F9211240090FA
S1132E805B000F922F933F934F935F936F937F93C6
S1132E908F939F93AF93BF93EF93FF93CF93DF935E
S1132EA0CDB7DEB780914A0390914B03FC0119958D
S1132EB00000DF91CF91FF91EF91BF91AF919F916E
S1132EC08F917F916F915F914F913F912F910F90CF
S1132ED000925B000F9000925F000F901F90189576
S1132EE01F920F9200905F000F92112400905B00DC
S1132EF00F922F933F934F935F936F937F938F938F
S1132F009F93AF93BF93EF93FF93CF93DF93CDB78B
S1132F10DEB780914C0390914D03FC01199500009C
S1132F20DF91CF91FF91EF91BF91AF919F918F91DD
S1132F307F916F915F914F913F912F910F900092EC
S1132F405B000F9000925F000F901F9018951F92E6
S1132F500F9200905F000F92112400905B000F927B
S1132F602F933F934F935F936F937F938F939F938D
S1132F70AF93BF93EF93FF93CF93DF93CDB7DEB7B8
S1132F8080914E0390914F03FC0119950000DF914D
S1132F90CF91FF91EF91BF91AF919F918F917F91CD
S1132FA06F915F914F913F912F910F9000925B0031
S1132FB00F9000925F000F901F9018951F920F9230
S1132FC000905F000F92112400905B000F922F93EA
S1132FD03F934F935F936F937F938F939F93AF939D
S1132FE0BF93EF93FF93CF93DF93CDB7DEB7809179
S1132FF0500390915103FC0119950000DF91CF918A
S1133000FF91EF91BF91AF919F918F917F916F91BC
S11330105F914F913F912F910F9000925B000F9021
S113302000925F000F901F9018951F920F920090CE
S11330305F000F92112400905B000F922F933F9337
S11330404F935F936F937F938F939F93AF93BF93AC
S1133050EF93FF93CF93DF93CDB7DEB78091520305
S113306090915303FC0119950000DF91CF91FF91DA
S1133070EF91BF91AF919F918F917F916F915F91EC
S11330804F913F912F910F9000925B000F9000920F
S11330905F000F901F9018951F920F9200905F0091
S11330A00F92112400905B000F922F933F934F9344
S11330B05F936F937F938F939F93AF93BF93EF939C
S11330C0FF93CF93DF93CDB7DEB7809154039091F4
S11330D05503FC0119950000DF91CF91FF91EF9109
S11330E0BF91AF919F918F917F916F915F914F911C
S11330F03F912F910F9000925B000F9000925F0020
S11331000F901F9018951F920F9200905F000F92DE
S1133110112400905B000F922F933F934F935F9382
S11331206F937F938F939F93AF93BF93EF93FF938B
S1133130CF93DF93CDB7DEB78091560390915703B9
S1133140FC0119950000DF91CF91FF91EF91BF91A0
S1133150AF919F918F917F916F915F914F913F912B
S11331602F910F9000925B000F9000925F000F90E0
S11331701F9018951F920F9200905F000F921124D8
S113318000905B000F922F933F934F935F936F9345
S11331907F938F939F93AF93BF93EF93FF93CF93BB
S11331A0DF93CDB7DEB78091580390915903FC01AA
S11331B019950000DF91CF91FF91EF91BF91AF91ED
S11331C09F918F917F916F915F914F913F912F913B
S11331D00F9000925B000F9000925F000F901F9081
S11331E018951F920F9200905F000F921124009087
S11331F05B000F922F933F934F935F936F937F9353
S11332008F939F93AF93BF93EF93FF93CF93DF93EA
S1133210CDB7DEB780915A0390915B03FC011995F9
S11332200000DF91CF91FF91EF91BF91AF919F91FA
S11332308F917F916F915F914F913F912F910F905B
S113324000925B000F9000925F000F901F90189502
S11332501F920F9200905F000F92112400905B0068
S11332600F922F933F934F935F936F937F938F931B
S11332709F93AF93BF93EF93FF93CF93DF93CDB718
S1133280DEB780915C0390915D03FC011995000009
S1133290DF91CF91FF91EF91BF91AF919F918F916A
S11332A07F916F915F914F913F912F910F90009279
S11332B05B000F9000925F000F901F9018951F9273
S11332C00F9200905F000F92112400905B000F9208
S11332D02F933F934F935F936F937F938F939F931A
S11332E0AF93BF93EF93FF93CF93DF93CDB7DEB745
S11332F080915E0390915F03FC0119950000DF91BA
S1133300CF91FF91EF91BF91AF919F918F917F9159
S11333106F915F914F913F912F910F9000925B00BD
S11333200F9000925F000F901F9018951F920F92BC
S113333000905F000F92112400905B000F922F9376
S11333403F934F935F936F937F938F939F93AF9329
S1133350BF93EF93FF93CF93DF93CDB7DEB7809105
S1133360600390916103FC0119950000DF91CF91F6
S1133370FF91EF91BF91AF919F918F917F916F9149
S11333805F914F913F912F910F9000925B000F90AE
S113339000925F000F901F9018951F920F9200905B
S11333A05F000F92112400905B000F922F933F93C4
S11333B04F935F936F937F938F939F93AF93BF9339
S11333C0EF93FF93CF93DF93CDB7DEB78091620382
S11333D090916303FC0119950000DF91CF91FF9157
S11333E0EF91BF91AF919F918F917F916F915F9179
S11333F04F913F912F910F9000925B000F9000929C
S11334005F000F901F9018951F920F9200905F001D
S11334100F92112400905B000F922F933F934F93D0
S11334205F936F937F938F939F93AF93BF93EF9328
S1133430FF93CF93DF93CDB7DEB780916403909170
S11334406503FC0119950000DF91CF91FF91EF9185
S1133450BF91AF919F918F917F916F915F914F91A8
S11334603F912F910F9000925B000F9000925F00AC
S11334700F901F9018951F920F9200905F000F926B
S1133480112400905B000F922F933F934F935F930F
S11334906F937F938F939F93AF93BF93EF93FF9318
S11334A0CF93DF93CDB7DEB7809166039091670326
S11334B0FC0119950000DF91CF91FF91EF91BF912D
S11334C0AF919F918F917F916F915F914F913F91B8
S11334D02F910F9000925B000F9000925F000F906D
S11334E01F9018951F920F9200905F000F92112465
S11334F000905B000F922F933F934F935F936F93D2
S11335007F938F939F93AF93BF93EF93FF93CF9347
S1133510DF93CDB7DEB78091680390916903FC0116
S113352019950000DF91CF91FF91EF91BF91AF9179
S11335309F918F917F916F915F914F913F912F91C7
S11335400F9000925B000F9000925F000F901F900D
S11335501895CF93DF9300D0CDB7DEB78B831A8253
S113356019828B81882F90E08130910589F0823017
S113357091051CF4892B39F01AC08230910569F049
S1133580039781F014C080EC90E09A83898312C081
S113359088EC90E09A8389830DC080ED90E09A8353
S11335A0898308C080E391E09A83898303C080E023
S11335B090E002C089819A810F900F900F90DF9163
S11335C0CF910895EF920F93CF93DF93CDB7DEB7EA
S11335D02C970FB6F894DEBF0FBECDBF8D834E83FC
S11335E05F83688779872A870B87EC868D81B1DFB3
S11335F09A83898389819A81892B09F469C08D8191
S1133600882F90E0865A9D4F2A85FC01208389816A
S11336109A81FC0110828A85873011F42CE101C063
S113362028E189819A81FC0121838C85882F90E08F
S113363082959295907F9827807F9827282F8B8555
S1133640882F90E0880F991F880F991F880F991F62
S1133650282B8A85882F90E083709927880F991FDB
S1133660822B282F89819A81FC0122838E819F815C
S1133670A885B985880F991FAA1FBB1F880F991F9A
S1133680AA1FBB1F880F991FAA1FBB1F880F991F52
S1133690AA1FBB1F9C01AD0180E094E2A4EFB0E03F
S11336A0BC01CD010E945024DA01C90101979C8319
S11336B08B838B819C81892F9927282F89819A81DB
S11336C0FC0125832B8189819A81FC01248301C01B
S11336D000002C960FB6F894DEBF0FBECDBFDF916D
S11336E0CF910F91EF900895CF93DF9300D01F9265
S11336F0CDB7DEB78B836C838B812BDF9A83898371
S113370089819A81892B79F1000089819A81FC0150
S11337108081829586958770882F90E081709927A3
S1133720892B99F38B81882F90E0865A9D4FFC0159
S11337308081873091F489819A81FC018181282FCD
S11337402E7F89819A81FC01218389819A81FC01E0
S1133750218189819A81FC01218389819A812C812B
S1133760FC01268301C000000F900F900F900F9072
S1133770DF91CF910895CF93DF93CDB7DEB729972B
S11337800FB6F894DEBF0FBECDBF89871E821D829F
S11337908985DFDE98878F838F819885892B19F43B
S11337A080E090E05AC080E492E4AFE0B0E0898326
S11337B09A83AB83BC8300008F819885FC01808150
S11337C0881F8827881F882F90E081709927892B6C
S11337D091F489819A81AB81BC819C01AD01215016
S11337E031094109510929833A834B835C83029748
S11337F0A105B1050CF78985882F90E0865A9D4F65
S1133800FC0180818730A1F48F819885FC0181813E
S11338108695882F90E081709927382F22278F81F1
S11338209885FC018681882F90E0822B932B06C01B
S11338308F819885FC018681882F90E09E838D83FB
S113384089819A81AB81BC81892B8A2B8B2B19F4BA
S11338508FEF90E002C08D819E8129960FB6F89477
S1133860DEBF0FBECDBFDF91CF9108951F920F929F
S113387000905F000F92112400905B000F922F9331
S11338803F934F935F936F937F938F939F93AF93E4
S1133890BF93EF93FF93CF93DF931F921F92CDB704
S11338A0DEB780918A0390918B03892B51F480ECCD
S11338B090E020EC30E0F90120812068FC012083B5
S11338C032C080915A028730A1F480EC90E0FC0170
S11338D081818695882F90E081709927382F22273F
S11338E080EC90E0FC018681882F90E0822B932B62
S11338F006C080EC90E0FC018681882F90E09A83DA
S1133900898320918A0330918B0389819A81F901FB
S1133910199580EC90E020EC30E0F90120812068DA
S1133920FC01208300000F900F90DF91CF91FF9155
S1133930EF91BF91AF919F918F917F916F915F9123
S11339404F913F912F910F9000925B000F90009246
S11339505F000F901F9018951F920F9200905F00C8
S11339600F92112400905B000F922F933F934F937B
S11339705F936F937F938F939F93AF93BF93EF93D3
S1133980FF93CF93DF93CDB7DEB7809182039091FD
S11339908303892B51F480EC90E020EC30E0F901B2
S11339A020812064FC01208310C0809182039091C7
S11339B08303FC01199580EC90E020EC30E0F901E0
S11339C020812064FC0120830000DF91CF91FF91CE
S11339D0EF91BF91AF919F918F917F916F915F9183
S11339E04F913F912F910F9000925B000F900092A6
S11339F05F000F901F9018951F920F9200905F0028
S1133A000F92112400905B000F922F933F934F93DA
S1133A105F936F937F938F939F93AF93BF93EF9332
S1133A20FF93CF93DF93CDB7DEB78091920390914C
S1133A309303892B51F480EC90E020EC30E0F90101
S1133A4020812062FC01208310C080919203909118
S1133A509303FC01199580EC90E020EC30E0F9012F
S1133A6020812062FC0120830000DF91CF91FF912F
S1133A70EF91BF91AF919F918F917F916F915F91E2
S1133A804F913F912F910F9000925B000F90009205
S1133A905F000F901F9018951F920F9200905F0087
S1133AA00F92112400905B000F922F933F934F933A
S1133AB05F936F937F938F939F93AF93BF93EF9392
S1133AC0FF93CF93DF931F921F92CDB7DEB7809100
S1133AD08C0390918D03892B51F488EC90E028ECB1
S1133AE030E0F90120812068FC01208332C08091FC
S1133AF05B028730A1F488EC90E0FC01818186951B
S1133B00882F90E081709927382F222788EC90E045
S1133B10FC018681882F90E0822B932B06C088ECD1
S1133B2090E0FC018681882F90E09A83898320911C
S1133B308C0330918D0389819A81F901199588EC60
S1133B4090E028EC30E0F90120812068FC0120831A
S1133B5000000F900F90DF91CF91FF91EF91BF91F3
S1133B60AF919F918F917F916F915F914F913F9111
S1133B702F910F9000925B000F9000925F000F90C6
S1133B801F9018951F920F9200905F000F921124BE
S1133B9000905B000F922F933F934F935F936F932B
S1133BA07F938F939F93AF93BF93EF93FF93CF93A1
S1133BB0DF93CDB7DEB78091840390918503892B81
S1133BC051F488EC90E028EC30E0F9012081206485
S1133BD0FC01208310C08091840390918503FC0133
S1133BE0199588EC90E028EC30E0F90120812064FC
S1133BF0FC0120830000DF91CF91FF91EF91BF91F1
S1133C00AF919F918F917F916F915F914F913F9170
S1133C102F910F9000925B000F9000925F000F9025
S1133C201F9018951F920F9200905F000F9211241D
S1133C3000905B000F922F933F934F935F936F938A
S1133C407F938F939F93AF93BF93EF93FF93CF9300
S1133C50DF93CDB7DEB78091940390919503892BC0
S1133C6051F488EC90E028EC30E0F90120812062E6
S1133C70FC01208310C08091940390919503FC0172
S1133C80199588EC90E028EC30E0F901208120625D
S1133C90FC0120830000DF91CF91FF91EF91BF9150
S1133CA0AF919F918F917F916F915F914F913F91D0
S1133CB02F910F9000925B000F9000925F000F9085
S1133CC01F9018951F920F9200905F000F9211247D
S1133CD000905B000F922F933F934F935F936F93EA
S1133CE07F938F939F93AF93BF93EF93FF93CF9360
S1133CF0DF931F921F92CDB7DEB780918E03909110
S1133D008F03892B51F480ED90E020ED30E0F90130
S1133D1020812068FC01208332C080915C028730BE
S1133D20A1F480ED90E0FC0181818695882F90E0DC
S1133D3081709927382F222780ED90E0FC0186813D
S1133D40882F90E0822B932B06C080ED90E0FC013D
S1133D508681882F90E09A83898320918E03309105
S1133D608F0389819A81F901199580ED90E020ED06
S1133D7030E0F90120812068FC01208300000F90CD
S1133D800F90DF91CF91FF91EF91BF91AF919F91F0
S1133D908F917F916F915F914F913F912F910F90F0
S1133DA000925B000F9000925F000F901F90189597
S1133DB01F920F9200905F000F92112400905B00FD
S1133DC00F922F933F934F935F936F937F938F93B0
S1133DD09F93AF93BF93EF93FF93CF93DF93CDB7AD
S1133DE0DEB78091860390918703892B51F480ED8F
S1133DF090E020ED30E0F90120812064FC01208373
S1133E0010C08091860390918703FC01199580ED81
S1133E1090E020ED30E0F90120812064FC01208352
S1133E200000DF91CF91FF91EF91BF91AF919F91EE
S1133E308F917F916F915F914F913F912F910F904F
S1133E4000925B000F9000925F000F901F901895F6
S1133E501F920F9200905F000F92112400905B005C
S1133E600F922F933F934F935F936F937F938F930F
S1133E709F93AF93BF93EF93FF93CF93DF93CDB70C
S1133E80DEB78091960390919703892B51F480EDCE
S1133E9090E020ED30E0F90120812062FC012083D4
S1133EA010C08091960390919703FC01199580EDC1
S1133EB090E020ED30E0F90120812062FC012083B4
S1133EC00000DF91CF91FF91EF91BF91AF919F914E
S1133ED08F917F916F915F914F913F912F910F90AF
S1133EE000925B000F9000925F000F901F90189556
S1133EF01F920F9200905F000F92112400905B00BC
S1133F000F922F933F934F935F936F937F938F936E
S1133F109F93AF93BF93EF93FF93CF93DF931F923E
S1133F201F92CDB7DEB78091900390919103892BB6
S1133F3051F480E391E020E331E0F901208120682D
S1133F40FC01208332C080915D028730A1F480E3BC
S1133F5091E0FC0181818695882F90E081709927FA
S1133F60382F222780E391E0FC018681882F90E09E
S1133F70822B932B06C080E391E0FC018681882F7D
S1133F8090E09A83898320919003309191038981F1
S1133F909A81F901199580E391E020E331E0F90178
S1133FA020812068FC01208300000F900F90DF9196
S1133FB0CF91FF91EF91BF91AF919F918F917F919D
S1133FC06F915F914F913F912F910F9000925B0001
S1133FD00F9000925F000F901F9018951F920F9200
S1133FE000905F000F92112400905B000F922F93BA
S1133FF03F934F935F936F937F938F939F93AF936D
S1134000BF93EF93FF93CF93DF93CDB7DEB7809148
S1134010880390918903892B51F480E391E020E394
S113402031E0F90120812064FC01208310C08091DB
S1134030880390918903FC01199580E391E020E3C2
S113404031E0F90120812064FC0120830000DF912C
S1134050CF91FF91EF91BF91AF919F918F917F91FC
S11340606F915F914F913F912F910F9000925B0060
S11340700F9000925F000F901F9018951F920F925F
S113408000905F000F92112400905B000F922F9319
S11340903F934F935F936F937F938F939F93AF93CC
S11340A0BF93EF93FF93CF93DF93CDB7DEB78091A8
S11340B0980390919903892B51F480E391E020E3D4
S11340C031E0F90120812062FC01208310C080913D
S11340D0980390919903FC01199580E391E020E302
S11340E031E0F90120812062FC0120830000DF918E
S11340F0CF91FF91EF91BF91AF919F918F917F915C
S11341006F915F914F913F912F910F9000925B00BF
S11341100F9000925F000F901F901895CF93DF933C
S1134120CDB7DEB781EC90E021EC30E0F9012081DD
S11341302061FC01208381EC90E021EC30E0F90166
S113414020812860FC01208381EC90E021EC30E0A8
S1134150F90120812B7FFC01208382EC90E022EC8A
S113416030E0F90120812460FC01208382EC90E09E
S113417022EC30E0F90120812260FC01208382ECF2
S113418090E022EC30E0F90120812F77FC012083BC
S113419082EC90E022EC30E0F90120812F7BFC01DD
S11341A0208382EC90E022EC30E0F90120812F7D25
S11341B0FC01208382EC90E022EC30E0F9012081C4
S11341C02F7EFC01208382EC90E022EC30E0F901A8
S11341D02081277FFC01208380EC90E020EC30E0FC
S11341E0F90120812260FC01208384EC90E02FEC13
S11341F030E0FC013183208389EC90E029EC30E04D
S1134200F90120812061FC01208389EC90E029ECF4
S113421030E0F90120812860FC01208389EC90E0E2
S113422029EC30E0F90120812B7FFC0120838AEC0A
S113423090E02AEC30E0F90120812460FC01208325
S11342408AEC90E02AEC30E0F90120812260FC0144
S113425020838AEC90E02AEC30E0F90120812F776A
S1134260FC0120838AEC90E02AEC30E0F901208103
S11342702F7BFC0120838AEC90E02AEC30E0F901EA
S113428020812F7DFC0120838AEC90E02AEC30E031
S1134290F90120812F7EFC0120838AEC90E02AEC36
S11342A030E0F9012081277FFC01208388EC90E035
S11342B028EC30E0F90120812260FC0120838CECA1
S11342C090E02FEC30E0FC013183208381ED90E01D
S11342D021ED30E0F90120812B7FFC01208382ED68
S11342E090E022ED30E0F90120812460FC0120837C
S11342F082ED90E022ED30E0F90120812260FC01A2
S1134300208382ED90E022ED30E0F90120812F77C7
S1134310FC01208382ED90E022ED30E0F901208160
S11343202F7BFC01208382ED90E022ED30E0F90147
S113433020812F7DFC01208382ED90E022ED30E08E
S1134340F90120812F7EFC01208382ED90E022ED93
S113435030E0F9012081277FFC01208380ED90E08B
S113436020ED30E0F90120812260FC01208384EDFE
S113437090E02FEC30E0FC0131832083809198029F
S1134380909199022091980230919902F90120812B
S11343902460FC0120830000DF91CF910895CF9326
S11343A0DF931F921F92CDB7DEB789836A83000023
S11343B08981882F90E0880F991F86569D4FFC01B4
S11343C080819181FC018081882F90E080729927FF
S11343D0892B71F38981882F90E0880F991F8E555E
S11343E09D4FFC01808191812A81FC012083000082
S11343F00F900F90DF91CF910895CF93DF931F9289
S1134400CDB7DEB7898300008981882F90E0880FBB
S1134410991F86559D4FFC0180819181FC0180810B
S1134420882394F78981882F90E0880F991F8E54F0
S11344309D4FFC0180819181FC0180810F90DF916F
S1134440CF9108955058BB27AA270ED075C166D1C5
S113445030F06BD120F031F49F3F11F41EF45BC1B6
S11344600EF4E095E7FB51C1E92F77D180F3BA1739
S1134470620773078407950718F071F49EF58FC1DE
S11344800EF4E0950B2EBA2FA02D0B01B90190016B
S11344900C01CA01A0011124FF27591B99F0593FAF
S11344A050F4503E68F11A16F040A22F232F342FF7
S11344B04427585FF3CF469537952795A795F04045
S11344C05395C9F77EF41F16BA0B620B730B840B5A
S11344D0BAF09150A1F0FF0FBB1F661F771F881F12
S11344E0C2F70EC0BA0F621F731F841F48F487956A
S11344F077956795B795F7959E3F08F0B3CF939559
S1134500880F08F09927EE0F979587950895D9D0CD
S113451008F481E008950CD00FC107D140F0FED01B
S113452030F021F45F3F19F0F0C0511139C1F3C0EC
S113453014D198F39923C9F35523B1F3951B550B63
S1134540BB27AA2762177307840738F09F5F5F4F62
S1134550220F331F441FAA1FA9F333D00E2E3AF0A3
S1134560E0E830D091505040E695001CCAF729D0BD
S1134570FE2F27D0660F771F881FBB1F261737070C
S11345804807AB07B0E809F0BB0B802DBF01FF273C
S113459093585F4F2AF09E3F510568F0B6C000C1A2
S11345A05F3FECF3983EDCF3869577956795B79576
S11345B0F7959F5FC9F7880F911D9695879597F991
S11345C00895E1E0660F771F881FBB1F621773070A
S11345D08407BA0720F0621B730B840BBA0BEE1F1F
S11345E088F7E095089504D06894B111D9C008956E
S11345F0BCD088F09F5790F0B92F9927B751A0F0FD
S1134600D1F0660F771F881F991F1AF0BA95C9F762
S113461012C0B13081F0C3D0B1E00895C0C0672F9B
S1134620782F8827B85F39F0B93FCCF38695779512
S11346306795B395D9F73EF49095809570956195FB
S11346407F4F8F4F9F4F0895E89409C097FB3EF426
S113465090958095709561957F4F8F4F9F4F9923CB
S1134660A9F0F92F96E9BB279395F6958795779549
S11346706795B795F111F8CFFAF4BB0F11F460FF09
S11346801BC06F5F7F4F8F4F9F4F16C0882311F061
S113469096E911C0772321F09EE8872F762F05C075
S11346A0662371F096E8862F70E060E02AF09A9510
S11346B0660F771F881FDAF7880F9695879597F905
S11346C00895990F0008550FAA0BE0E8FEEF16169F
S11346D01706E807F907C0F012161306E407F507F2
S11346E098F0621B730B840B950B39F40A2661F066
S11346F0232B242B252B21F408950A2609F4A14009
S1134700A6958FEF811D811D089597F99F6780E815
S113471070E060E008959FEF80EC089500240A940F
S11347201616170618060906089500240A94121688
S11347301306140605060895092E0394000C11F4BB
S1134740882352F0BB0F40F4BF2B11F460FF04C068
S11347506F5F7F4F8F4F9F4F089557FD9058440FC1
S1134760551F59F05F3F71F04795880F97FB991FCC
S113477061F09F3F79F08795089512161306140689
S1134780551FF2CF4695F1DF08C016161706180616
S1134790991FF1CF86957105610508940895E894F1
S11347A0BB2766277727CB0197F908958ADF08F49A
S11347B08FEF08950BD0C0CFB1DF28F0B6DF18F02B
S11347C0952309F0A2CFA7CF1124EACFC6DFA0F327
S11347D0959FD1F3950F50E0551F629FF001729F92
S11347E0BB27F00DB11D639FAA27F00DB11DAA1FB1
S11347F0649F6627B00DA11D661F829F2227B00DFE
S1134800A11D621F739FB00DA11D621F839FA00D88
S1134810611D221F749F3327A00D611D231F849FD8
S1134820600D211D822F762F6A2F11249F5750402F
S11348308AF0E1F088234AF0EE0FFF1FBB1F661FCA
S1134840771F881F91505040A9F79E3F510570F083
S11348505CCFA6CF5F3FECF3983EDCF3869577956B
S11348606795B795F795E7959F5FC1F7FE2B880F7E
S1134870911D9695879597F9089597FB072E16F441
S1134880009406D077FD08D03CD007FC05D03EF458
S1134890909581959F4F0895709561957F4F0895E8
S11348A0A1E21A2EAA1BBB1BFD010DC0AA1FBB1F30
S11348B0EE1FFF1FA217B307E407F50720F0A21BA2
S11348C0B30BE40BF50B661F771F881F991F1A940F
S11348D069F760957095809590959B01AC01BD0139
S11348E0CF010895A29FB001B39FC001A39F700D93
S11348F0811D1124911DB29F700D811D1124911DE4
S11349000895AA1BBB1B51E107C0AA1FBB1FA61712
S1134910B70710F0A61BB70B881F991F5A95A9F764
S113492080959095BC01CD0108950F931F93CF936B
S1134930DF938230910510F482E090E0E091A003CF
S1134940F091A10320E030E0A0E0B0E0309719F14D
S1134950408151810281138148175907C8F0841797
S1134960950769F4109731F012960C9312971396E9
S11349701C9327C00093A0031093A10322C0211508
S1134980310519F04217530718F49A01BD01EF01DC
S1134990DF01F801DBCF21153105F9F0281B390BB4
S11349A02430310580F48A819B816115710521F0E1
S11349B0FB019383828304C09093A1038093A0039B
S11349C0FE01329644C0FE01E20FF31F81939193DE
S11349D022503109398328833AC020919E033091B3
S11349E09F03232B41F42091020230910302309360
S11349F09F0320939E032091000230910102211510
S1134A00310541F42DB73EB740910402509105029F
S1134A10241B350BE0919E03F0919F03E217F307EB
S1134A20A0F42E1B3F0B2817390778F0AC014E5F1A
S1134A305F4F2417350748F04E0F5F1F50939F03B5
S1134A4040939E038193919302C0E0E0F0E0CF0194
S1134A50DF91CF911F910F910895CF93DF9300972A
S1134A6009F481C0FC01329713821282A091A00341
S1134A70B091A103109781F420813181820F931F9B
S1134A8020919E0330919F032817390751F5F09325
S1134A909F03E0939E0367C0ED0120E030E0CE1752
S1134AA0DF0740F44A815B819E0141155105F1F015
S1134AB0EA01F5CFD383C28340815181840F951FCE
S1134AC0C817D90759F488819981840F951F0296D4
S1134AD0918380838A819B8193838283211531050D
S1134AE029F4F093A103E093A0033DC0E901FB8303
S1134AF0EA8349915991C40FD51FEC17FD0761F45E
S1134B0080819181840F951F0296E901998388839E
S1134B10828193819B838A83E0E0F0E012968D91F9
S1134B209C911397009719F0FD01DC01F7CF8D914B
S1134B309C9111979D012E5F3F4F820F931F2091EF
S1134B409E0330919F032817390769F4309729F49D
S1134B501092A1031092A00302C013821282B09398
S1134B609F03A0939E03DF91CF910895911105C0F7
S1134B70803211F08930D9F708959927882708954C
S1074B80F894FFCFD3
S1134B840000A20320000105120000A00F00000091
S1134B9400000205120000A00F0000000000004FF6
S1134BA496CFF300F3CF964F00B16A310D000D3167
S1134BB46AB1DDAB681ACB8142170206235598E625
S1134BC4357FBEE9FEFA230602174281CB1A68AB8D
S1134BD4DDFAFEE9BE7F35E69855FF0000000000CB
S1134BE44040000040400105120000FFFF000000A7
S1134BF400000205120000FFFF0000000000460050
S1134C048400B2009400A400240147008800B30087
S1134C149800A800280164006500C000C800D00002
S1134C243001C600CE00D6003601C000C800D00052
S10D4C343001C600CE00D6003601A0
S9030000FC
